{
  "_format": "hh-sol-artifact-1",
  "contractName": "ProductRegistry",
  "sourceName": "contracts/ProductRegistry.sol",
  "abi": [
    {
      "inputs": [],
      "stateMutability": "nonpayable",
      "type": "constructor"
    },
    {
      "anonymous": false,
      "inputs": [
        {
          "indexed": true,
          "internalType": "address",
          "name": "previousOwner",
          "type": "address"
        },
        {
          "indexed": true,
          "internalType": "address",
          "name": "newOwner",
          "type": "address"
        }
      ],
      "name": "OwnershipTransferred",
      "type": "event"
    },
    {
      "anonymous": false,
      "inputs": [
        {
          "indexed": false,
          "internalType": "string",
          "name": "productId",
          "type": "string"
        },
        {
          "indexed": false,
          "internalType": "string",
          "name": "name",
          "type": "string"
        },
        {
          "indexed": false,
          "internalType": "address",
          "name": "registeredBy",
          "type": "address"
        },
        {
          "indexed": false,
          "internalType": "uint256",
          "name": "timestamp",
          "type": "uint256"
        }
      ],
      "name": "ProductRegistered",
      "type": "event"
    },
    {
      "inputs": [
        {
          "internalType": "string",
          "name": "productId",
          "type": "string"
        }
      ],
      "name": "getProduct",
      "outputs": [
        {
          "internalType": "string",
          "name": "",
          "type": "string"
        },
        {
          "internalType": "string",
          "name": "",
          "type": "string"
        },
        {
          "internalType": "address",
          "name": "",
          "type": "address"
        },
        {
          "internalType": "uint256",
          "name": "",
          "type": "uint256"
        }
      ],
      "stateMutability": "view",
      "type": "function"
    },
    {
      "inputs": [
        {
          "internalType": "string",
          "name": "productId",
          "type": "string"
        }
      ],
      "name": "isAuthentic",
      "outputs": [
        {
          "internalType": "bool",
          "name": "",
          "type": "bool"
        }
      ],
      "stateMutability": "view",
      "type": "function"
    },
    {
      "inputs": [],
      "name": "owner",
      "outputs": [
        {
          "internalType": "address",
          "name": "",
          "type": "address"
        }
      ],
      "stateMutability": "view",
      "type": "function"
    },
    {
      "inputs": [
        {
          "internalType": "string",
          "name": "",
          "type": "string"
        }
      ],
      "name": "products",
      "outputs": [
        {
          "internalType": "string",
          "name": "name",
          "type": "string"
        },
        {
          "internalType": "string",
          "name": "ipfsHash",
          "type": "string"
        },
        {
          "internalType": "address",
          "name": "registeredBy",
          "type": "address"
        },
        {
          "internalType": "uint256",
          "name": "timestamp",
          "type": "uint256"
        }
      ],
      "stateMutability": "view",
      "type": "function"
    },
    {
      "inputs": [
        {
          "internalType": "string",
          "name": "productId",
          "type": "string"
        },
        {
          "internalType": "string",
          "name": "name",
          "type": "string"
        },
        {
          "internalType": "string",
          "name": "ipfsHash",
          "type": "string"
        }
      ],
      "name": "registerProduct",
      "outputs": [],
      "stateMutability": "nonpayable",
      "type": "function"
    },
    {
      "inputs": [
        {
          "internalType": "address",
          "name": "newOwner",
          "type": "address"
        }
      ],
      "name": "transferOwnership",
      "outputs": [],
      "stateMutability": "nonpayable",
      "type": "function"
    }
  ],
  "bytecode": "0x608060405234801561001057600080fd5b5033600160006101000a81548173ffffffffffffffffffffffffffffffffffffffff021916908373ffffffffffffffffffffffffffffffffffffffff160217905550611299806100616000396000f3fe608060405234801561001057600080fd5b50600436106100625760003560e01c80630186a423146100675780631c0030771461009a5780633406b718146100ca57806368111cce146100e65780638da5cb5b14610119578063f2fde38b14610137575b600080fd5b610081600480360381019061007c9190610a96565b610153565b6040516100919493929190610bb8565b60405180910390f35b6100b460048036038101906100af9190610a96565b6102c9565b6040516100c19190610c26565b60405180910390f35b6100e460048036038101906100df9190610c41565b610343565b005b61010060048036038101906100fb9190610a96565b61050a565b6040516101109493929190610bb8565b60405180910390f35b610121610757565b60405161012e9190610ce8565b60405180910390f35b610151600480360381019061014c9190610d2f565b61077d565b005b60008180516020810182018051848252602083016020850120818352809550505050505060009150905080600001805461018c90610d8b565b80601f01602080910402602001604051908101604052809291908181526020018280546101b890610d8b565b80156102055780601f106101da57610100808354040283529160200191610205565b820191906000526020600020905b8154815290600101906020018083116101e857829003601f168201915b50505050509080600101805461021a90610d8b565b80601f016020809104026020016040519081016040528092919081815260200182805461024690610d8b565b80156102935780601f1061026857610100808354040283529160200191610293565b820191906000526020600020905b81548152906001019060200180831161027657829003601f168201915b5050505050908060020160009054906101000a900473ffffffffffffffffffffffffffffffffffffffff16908060030154905084565b60008073ffffffffffffffffffffffffffffffffffffffff166000836040516102f29190610df8565b908152602001604051809103902060020160009054906101000a900473ffffffffffffffffffffffffffffffffffffffff1673ffffffffffffffffffffffffffffffffffffffff1614159050919050565b600073ffffffffffffffffffffffffffffffffffffffff1660008460405161036b9190610df8565b908152602001604051809103902060020160009054906101000a900473ffffffffffffffffffffffffffffffffffffffff1673ffffffffffffffffffffffffffffffffffffffff16146103f3576040517f08c379a00000000000000000000000000000000000000000000000000000000081526004016103ea90610e5b565b60405180910390fd5b60405180608001604052808381526020018281526020013373ffffffffffffffffffffffffffffffffffffffff1681526020014281525060008460405161043a9190610df8565b9081526020016040518091039020600082015181600001908161045d9190611027565b5060208201518160010190816104739190611027565b5060408201518160020160006101000a81548173ffffffffffffffffffffffffffffffffffffffff021916908373ffffffffffffffffffffffffffffffffffffffff160217905550606082015181600301559050507f0c0d491e345bc2978c00d63d2467e57a7b6d771cf759616a786b1d339d75f1b5838333426040516104fd9493929190610bb8565b60405180910390a1505050565b606080600080600080866040516105219190610df8565b908152602001604051809103902060405180608001604052908160008201805461054a90610d8b565b80601f016020809104026020016040519081016040528092919081815260200182805461057690610d8b565b80156105c35780601f10610598576101008083540402835291602001916105c3565b820191906000526020600020905b8154815290600101906020018083116105a657829003601f168201915b505050505081526020016001820180546105dc90610d8b565b80601f016020809104026020016040519081016040528092919081815260200182805461060890610d8b565b80156106555780601f1061062a57610100808354040283529160200191610655565b820191906000526020600020905b81548152906001019060200180831161063857829003601f168201915b505050505081526020016002820160009054906101000a900473ffffffffffffffffffffffffffffffffffffffff1673ffffffffffffffffffffffffffffffffffffffff1673ffffffffffffffffffffffffffffffffffffffff1681526020016003820154815250509050600073ffffffffffffffffffffffffffffffffffffffff16816040015173ffffffffffffffffffffffffffffffffffffffff1603610733576040517f08c379a000000000000000000000000000000000000000000000000000000000815260040161072a90611145565b60405180910390fd5b80600001518160200151826040015183606001519450945094509450509193509193565b600160009054906101000a900473ffffffffffffffffffffffffffffffffffffffff1681565b600160009054906101000a900473ffffffffffffffffffffffffffffffffffffffff1673ffffffffffffffffffffffffffffffffffffffff163373ffffffffffffffffffffffffffffffffffffffff161461080d576040517f08c379a0000000000000000000000000000000000000000000000000000000008152600401610804906111d7565b60405180910390fd5b600073ffffffffffffffffffffffffffffffffffffffff168173ffffffffffffffffffffffffffffffffffffffff160361087c576040517f08c379a000000000000000000000000000000000000000000000000000000000815260040161087390611243565b60405180910390fd5b8073ffffffffffffffffffffffffffffffffffffffff16600160009054906101000a900473ffffffffffffffffffffffffffffffffffffffff1673ffffffffffffffffffffffffffffffffffffffff167f8be0079c531659141344cd1fd0a4f28419497f9722a3daafe3b4186f6b6457e060405160405180910390a380600160006101000a81548173ffffffffffffffffffffffffffffffffffffffff021916908373ffffffffffffffffffffffffffffffffffffffff16021790555050565b6000604051905090565b600080fd5b600080fd5b600080fd5b600080fd5b6000601f19601f8301169050919050565b7f4e487b7100000000000000000000000000000000000000000000000000000000600052604160045260246000fd5b6109a38261095a565b810181811067ffffffffffffffff821117156109c2576109c161096b565b5b80604052505050565b60006109d561093c565b90506109e1828261099a565b919050565b600067ffffffffffffffff821115610a0157610a0061096b565b5b610a0a8261095a565b9050602081019050919050565b82818337600083830152505050565b6000610a39610a34846109e6565b6109cb565b905082815260208101848484011115610a5557610a54610955565b5b610a60848285610a17565b509392505050565b600082601f830112610a7d57610a7c610950565b5b8135610a8d848260208601610a26565b91505092915050565b600060208284031215610aac57610aab610946565b5b600082013567ffffffffffffffff811115610aca57610ac961094b565b5b610ad684828501610a68565b91505092915050565b600081519050919050565b600082825260208201905092915050565b60005b83811015610b19578082015181840152602081019050610afe565b60008484015250505050565b6000610b3082610adf565b610b3a8185610aea565b9350610b4a818560208601610afb565b610b538161095a565b840191505092915050565b600073ffffffffffffffffffffffffffffffffffffffff82169050919050565b6000610b8982610b5e565b9050919050565b610b9981610b7e565b82525050565b6000819050919050565b610bb281610b9f565b82525050565b60006080820190508181036000830152610bd28187610b25565b90508181036020830152610be68186610b25565b9050610bf56040830185610b90565b610c026060830184610ba9565b95945050505050565b60008115159050919050565b610c2081610c0b565b82525050565b6000602082019050610c3b6000830184610c17565b92915050565b600080600060608486031215610c5a57610c59610946565b5b600084013567ffffffffffffffff811115610c7857610c7761094b565b5b610c8486828701610a68565b935050602084013567ffffffffffffffff811115610ca557610ca461094b565b5b610cb186828701610a68565b925050604084013567ffffffffffffffff811115610cd257610cd161094b565b5b610cde86828701610a68565b9150509250925092565b6000602082019050610cfd6000830184610b90565b92915050565b610d0c81610b7e565b8114610d1757600080fd5b50565b600081359050610d2981610d03565b92915050565b600060208284031215610d4557610d44610946565b5b6000610d5384828501610d1a565b91505092915050565b7f4e487b7100000000000000000000000000000000000000000000000000000000600052602260045260246000fd5b60006002820490506001821680610da357607f821691505b602082108103610db657610db5610d5c565b5b50919050565b600081905092915050565b6000610dd282610adf565b610ddc8185610dbc565b9350610dec818560208601610afb565b80840191505092915050565b6000610e048284610dc7565b915081905092915050565b7f50726f6475637420616c72656164792072656769737465726564000000000000600082015250565b6000610e45601a83610aea565b9150610e5082610e0f565b602082019050919050565b60006020820190508181036000830152610e7481610e38565b9050919050565b60008190508160005260206000209050919050565b60006020601f8301049050919050565b600082821b905092915050565b600060088302610edd7fffffffffffffffffffffffffffffffffffffffffffffffffffffffffffffffff82610ea0565b610ee78683610ea0565b95508019841693508086168417925050509392505050565b6000819050919050565b6000610f24610f1f610f1a84610b9f565b610eff565b610b9f565b9050919050565b6000819050919050565b610f3e83610f09565b610f52610f4a82610f2b565b848454610ead565b825550505050565b600090565b610f67610f5a565b610f72818484610f35565b505050565b5b81811015610f9657610f8b600082610f5f565b600181019050610f78565b5050565b601f821115610fdb57610fac81610e7b565b610fb584610e90565b81016020851015610fc4578190505b610fd8610fd085610e90565b830182610f77565b50505b505050565b600082821c905092915050565b6000610ffe60001984600802610fe0565b1980831691505092915050565b60006110178383610fed565b9150826002028217905092915050565b61103082610adf565b67ffffffffffffffff8111156110495761104861096b565b5b6110538254610d8b565b61105e828285610f9a565b600060209050601f831160018114611091576000841561107f578287015190505b611089858261100b565b8655506110f1565b601f19841661109f86610e7b565b60005b828110156110c7578489015182556001820191506020850194506020810190506110a2565b868310156110e457848901516110e0601f891682610fed565b8355505b6001600288020188555050505b505050505050565b7f50726f64756374206e6f7420666f756e64000000000000000000000000000000600082015250565b600061112f601183610aea565b915061113a826110f9565b602082019050919050565b6000602082019050818103600083015261115e81611122565b9050919050565b7f4f6e6c79206f776e65722063616e2063616c6c20746869732066756e6374696f60008201527f6e00000000000000000000000000000000000000000000000000000000000000602082015250565b60006111c1602183610aea565b91506111cc82611165565b604082019050919050565b600060208201905081810360008301526111f0816111b4565b9050919050565b7f4e6577206f776e65722063616e6e6f74206265207a65726f2061646472657373600082015250565b600061122d602083610aea565b9150611238826111f7565b602082019050919050565b6000602082019050818103600083015261125c81611220565b905091905056fea2646970667358221220bdb6d6181e2f25fee9e6b8aa982fd9018f02bd59f4c0592858391c19c1b21ffd64736f6c63430008130033",
  "linkReferences": {},
  "deployedLinkReferences": {}
}